:020000040800F2
:100000000080012009090008C1040008C304000899
:10001000C5040008C7040008C90400080000000067
:10002000000000000000000000000000CB040008F9
:10003000CD04000800000000CF040008D10400082F
:100040005909000859090008590900085909000808
:1000500059090008590900085909000859090008F8
:1000600059090008590900085909000859090008E8
:1000700059090008590900085909000859090008D8
:100080005909000859090008590900080000000032
:1000900000000000000000000000000059090008F6
:1000A00059090008590900085909000859090008A8
:1000B0005909000859090008590900085909000898
:1000C0005909000859090008590900085909000888
:1000D00059090008590900085909000800000000E2
:1000E00059090008590900085909000800000000D2
:1000F0000000000000000000000000005909000896
:1001000000000000590900085909000859090008B1
:1001100000000000000000000000000000000000DF
:100120005909000859090008590900085909000827
:100130005909000800000000000000000000000055
:100140000000000000000000000000005909000845
:1001500059090008590900085909000859090008F7
:1001600059090008590900080000000000000000BB
:10017000000000000000000000000000000000007F
:100180000000000059090008000000000000000005
:040190005909000801
:1001940010B5054C237833B9044B13B10448AFF3BD
:1001A40000800123237010BD040000200000000023
:1001B400B409000808B5034B1BB103490348AFF366
:1001C400008008BD0000000008000020B4090008F9
:1001D40000B500F00700C0F1070CBCF1040F28BF04
:1001E4004FF0040C031D062B0FD9C31E4FF0FF3E26
:1001F4000EFA0CF021EA000199400EFA03FE22EAFD
:100204000E0241EA02005DF804FB0023EEE7000061
:1002140082B0064B1A6B42F002021A631B6B03F0A6
:1002240002030193019B02B0704700BF00380240F3
:1002340030B591B0202200210DEB020000F08BFBC1
:100244000025029503950495059506950795224C7E
:10025400236B43F002032363236B03F00203019334
:10026400019B4FF4407302930223039303230493EB
:10027400012305930423079302A9184800F0BEF94B
:10028400236C43F400132364236C03F400130093DE
:10029400009BA4F5F234E36823F00103E3602368D0
:1002A40023F040032360236823F080032360089530
:1002B4000B4B09930A950D954FF480630E934FF4FD
:1002C40080430F9308A9204600F03EFAE36823F028
:1002D400FE03E36011B030BD003802400004024068
:1002E400A086010010B5234A136823F007031360A6
:1002F400204B1B6813F0070FFAD11F4A136823F42D
:10030400404343F40043136002F5E432136823F0DE
:10031400F80343F080031360136843F00103136090
:10032400164B1B6813F0020FFAD0144B9A6822F094
:10033400F0029A609A6822F4E0529A609A6822F471
:1003440060429A609A6822F003029A600B4B9B68A1
:1003540013F00C0FFAD10A4C204600F09DFA204607
:1003640000F0C0FA054AD2F88C3023F08073C2F84A
:100374008C3010BD003C0240007000400038024048
:100384000024F40000B585B0484B5A6C42F4804216
:100394005A645A6C02F480420392039A1A6C42F033
:1003A40080521A641B6C03F080530293029B404CEE
:1003B400E26822F4E0621204120C3E4B1343E36041
:1003C400E06800220F21C0F30220FFF701FF0301C0
:1003D400DBB284F82330FFF785FFFFF719FFFFF73F
:1003E40027FF354B1B6813F0010F16D1324A1368EF
:1003F40043F00103136010E02F4B5B6913F4806F2B
:1004040033D02D4B1A6842F400721A605A6922F4F0
:1004140080625A61322000F04FFA274B9B6913F037
:10042400020FFAD1244A136843F480731360224BF9
:100434005B6913F0010FFAD090238DF803309DF817
:1004440003301D490A6922F0FF0213430B610023A4
:100454008DF80330184B5B6913F0020FCCD1164BA7
:100464005B6913F4806FF5D0C6E7134B5A690192A8
:100474009A690192019A9DF80320196921F0FF01FC
:100484000A431A610C4B5B6913F0040FFAD00A4A51
:10049400136843F400731360074B9B6913F0020F56
:1004A400FAD1054B1A681A60B4E700BF003802405D
:1004B40000ED00E00003FA0500540040FEE7FEE70B
:1004C400FEE7FEE7FEE7704770477047704710B4D9
:1004D400046891FAA1F3A3B1B3FA83F35B004FF07C
:1004E400030C0CFA03F324EA030391FAA1F151B1CA
:1004F400B1FA81F149008A40134303605DF8044B6B
:1005040070472023EAE72021F4E710B4846891FAC5
:10051400A1F3A3B1B3FA83F35B004FF0030C0CFA1D
:1005240003F324EA030391FAA1F151B1B1FA81F181
:1005340049008A40134383605DF8044B70472023CD
:10054400EAE72021F4E710B4C46891FAA1F3A3B157
:10055400B3FA83F35B004FF0030C0CFA03F324EAC1
:10056400030391FAA1F151B1B1FA81F149008A4032
:100574001343C3605DF8044B70472023EAE720214E
:10058400F4E710B4046A91FAA1F3A3B1B3FA83F3C4
:100594009B004FF00F0C0CFA03F324EA030391FAC7
:1005A400A1F151B1B1FA81F189008A401343036288
:1005B4005DF8044B70472023EAE72021F4E710B4E8
:1005C400446A090A91FAA1F3A3B1B3FA83F39B0035
:1005D4004FF00F0C0CFA03F324EA030491FAA1F18F
:1005E40051B1B1FA81F189008A40144344625DF843
:1005F400044B70472023EAE72021F4E7F8B50746C7
:100604000E460D6895FAA5F515B1B5FA85F51AE00B
:10061400202518E0B26821463846FFF776FFF268D5
:100624007B6823EA040304FB02F213437B6016E0B5
:10063400726921463846FFF7C2FF72682146384680
:10064400FFF745FF0135346834FA05F21DD0012265
:10065400AA401440F6D07368013B012BDAD9326901
:1006640021463846FFF76FFF7368022BE5D194FAF1
:10067400A4F3002BDCD0B3FA83F3072BD8D8726928
:1006840021463846FFF77DFFD7E70020F8BD00007C
:1006940030B52A4CA4FB014E4FEA9E4C446824F02A
:1006A4003F0444EA9E444460046A24F03F04244D19
:1006B400AA421BD80CF1010C44EA0C040462204C3D
:1006C400A24231D9F3B902EB4202B1FBF2F2C2F316
:1006D4000B0119B342F400410B43C26922F44F4C9D
:1006E4002CF0FF0C4CEA0303C36130BD4FF4967544
:1006F40005FB0CFC134DA5FB0C5C4FEA9C1C0CF198
:10070400010CD9E702EB820202EB8202B1FBF2F2A6
:10071400C2F30B0129B142F40041DDE748F20101C3
:10072400DAE748F20101D7E75200B1FBF2F340F6F1
:10073400FC721342D1D10423CFE700BF83DE1B43F5
:10074400A0860100D34D621030B585B004460D4635
:10075400036823F001030360684600F08DF8EA683B
:100764002969636A23F01F030A4313436362AB6876
:100774006A6802992046FFF78BFF6A69E969A368F2
:1007840023F4034323F0FF030A431343A3602B68BA
:10079400226822F01A0213432360236843F0010302
:1007A4002360AB69226822F4806213432360002033
:1007B40005B030BD034B9B68C3F30313024AD35CFB
:1007C400D840704700380240D4090008034B9B68A6
:1007D400C3F38223024AD35CD840704700380240F6
:1007E400CC090008034B9B68C3F34233024AD35C31
:1007F400D840704700380240CC0900080F4B5B68B2
:1008040003F4800323B90E4B082803D0002070475B
:100814000C4BF9E7094A516801F03F01B3FBF1F0D1
:100824005368C3F3881303FB00F05368C3F3014315
:1008340001335B00B0FBF3F0704700BF00380240A7
:100844000024F40040787D0108B5084B9B6803F050
:100854000C03042B05D0082B05D10820FFF7CEFF8D
:1008640008BD0348FCE70348FAE700BF003802402C
:1008740040787D010024F40010B50446FFF7E4FF3E
:100884002060FFF797FF6060FFF7A0FFA06060683B
:10089400FFF7A8FFE06010BD064BA3FB00239B09F4
:1008A400013B4FF0E0225361002393610523136160
:1008B400704700BFD34D621082B04FF0E0231B6934
:1008C4000193019BB0F1FF3F00D0013038B14FF0EC
:1008D400E0231B6913F4803FF8D00138F6E702B037
:1008E40070470000014B1860704700BF00000020F3
:1008F400034AD2F8883043F47003C2F88830704752
:1009040000ED00E0DFF834D0FFF7F2FF0C480D49AA
:100914000D4A002302E0D458C4500433C4188C4256
:10092400F9D30A4A0A4C002301E013600432A242BC
:10093400FBD300F019F8FFF725FD70470080012074
:100944000000002004000020EC090008040000203E
:1009540020000020FEE702440346934200D1704782
:1009640003F8011BF9E7000070B50D4D0D4C641B35
:10097400A4100026A64209D10B4D0C4C00F018F827
:10098400641BA4100026A64205D170BD55F8043B93
:1009940098470136EEE755F8043B98470136F2E7ED
:1009A400E4090008E4090008E4090008E80900086B
:1009B400F8B500BFF8BC08BC9E467047F8B500BF48
:0809C400F8BC08BC9E46704718
:1009CC000000000001020304000000000000000011
:0809DC000102030406070809EB
:0409E400B90100084D
:0409E800950100086D
:0409EC000024F400EF
:0400000508000909DD
:00000001FF
