:020000040800F2
:100000000080012005130008810C0008830C000803
:10001000850C0008870C0008890C0008000000000F
:100020000000000000000000000000008B0C000831
:100030008D0C0008000000008F0C0008910C0008D7
:1000400055130008551300085513000855130008F0
:1000500055130008551300085513000855130008E0
:1000600055130008551300085513000855130008D0
:1000700055130008551300085513000855130008C0
:100080005513000855130008551300080000000020
:1000900000000000000000000000000055130008F0
:1000A0005513000855130008551300085513000890
:1000B0005513000855130008551300085513000880
:1000C0005513000855130008551300085513000870
:1000D00055130008551300085513000800000000D0
:1000E00055130008551300085513000800000000C0
:1000F0000000000000000000000000005513000890
:10010000000000005513000855130008551300089F
:1001100000000000000000000000000000000000DF
:10012000551300085513000855130008551300080F
:10013000551300080000000000000000000000004F
:10014000000000000000000000000000551300083F
:1001500055130008551300085513000855130008DF
:1001600055130008551300080000000000000000AF
:10017000000000000000000000000000000000007F
:1001800000000000551300080000000000000000FF
:0401900055130008FB
:1001940010B5054C237833B9044B13B10448AFF3BD
:1001A40000800123237010BD040000200000000023
:1001B400B013000808B5034B1BB103490348AFF360
:1001C400008008BD0000000008000020B0130008F3
:1001D40053B94AB9002908BF00281CBF4FF0FF31AA
:1001E4004FF0FF3000F088B9ADF1080C6DE904CE92
:1001F40000F006F8DDF804E0DDE9022304B07047FE
:100204002DE9F047089D8E4604468846002B4AD1C6
:100214008A42174662D9B2FA82F64EB1C6F1200379
:1002240001FA06F820FA03F3B74043EA0808B44099
:100234004FEA174E1FFA87FCB8FBFEF1230C0EFBA6
:10024400118843EA084301FB0CF29A4209D9FB18CE
:1002540001F1FF3080F0EA809A4240F2E7800239EF
:100264003B449A1AA3B2B2FBFEF00EFB102243EAFF
:10027400024300FB0CFC9C4509D9FB1800F1FF323A
:1002840080F0D6809C4540F2D3803B44023840EA5B
:100294000140A3EB0C0300211DB1F3400022C5E98A
:1002A4000032BDE8F0878B4205D90DB1C5E90001E4
:1002B40000210846F5E7B3FA83F1002946D17345D6
:1002C40002D3824200F20581841A6EEB03020120FC
:1002D4009046002DE5D0C5E90048E2E7002A00F089
:1002E4009080B2FA82F6002E40F0A4808A1A030CA1
:1002F4004FEA174E80B2BCB20121B2FBFEFC0EFBEA
:100304001C2243EA024304FB0CF29A4207D9FB186D
:100314000CF1FF3802D29A4200F2E080C4469B1AE4
:10032400B3FBFEF20EFB123340EA034302FB04F478
:100334009C4207D9FB1802F1FF3002D29C4200F222
:10034400CA8002461B1B42EA0C40A5E7C1F1200605
:100354008B4022FA06F71F430EFA01F420FA06F343
:100364002EFA06FE4FEA1749234300FA01F81FFA52
:1003740087FCBEFBF9F01C0C09FB10EE44EA0E44AA
:1003840000FB0CFEA64502FA01F209D93C1900F162
:10039400FF3A80F09C80A64540F2998002383C44A4
:1003A400A4EB0E041FFA83FEB4FBF9F309FB134418
:1003B4004EEA044403FB0CFCA44508D93C1903F1A0
:1003C400FF3E80F08280A4457FD9023B3C4443EA4F
:1003D4000040A4EB0C04A0FB02EC64457346E14628
:1003E40062D35FD05DB1B8EB030264EB090404FA95
:1003F40006F622FA01F31E43CC40C5E9006400214D
:100404004FE7B1FBF2FC010C41EA0E4180B240EA35
:1004140001423B4638463C46B846BE462026B1FB20
:10042400F7F1A2EB080241EA0C4166E7014618E73E
:1004340010462CE7C6F120022EFA02F3B740B14071
:1004440020FA02F24FEA174E0A43B3FBFEF8BCB29D
:100454000EFB1833110C41EA034108FB04F9B040C8
:1004640089454FEA104380B23ED9791808F1FF3C20
:1004740001D289451FD8A1EB0901B1FBFEF909FBA3
:1004840004F80EFB191192B242EA0142424529D204
:10049400BA1809F1FF31C4D24245C2D2A9F102010E
:1004A4003A44BEE7F0459DD2BEEB02036CEB070C69
:1004B4000138E14696E7A7EB09094944A8F1020C83
:1004C400B1FBFEF909FB04F8DBE773467FE750460E
:1004D40066E70846FDE63B44023A33E7ACF1020C1A
:1004E4003B441CE749469CE7A1EB0901C446B1FB28
:1004F400FEF909FB04F8C4E7704700BF10B40468B0
:1005040091FAA1F3A3B1B3FA83F35B004FF0030CA8
:100514000CFA03F324EA030391FAA1F151B1B1FAFD
:1005240081F149008A40134303605DF8044B70472E
:100534002023EAE72021F4E710B4C46891FAA1F378
:10054400A3B1B3FA83F35B004FF0030C0CFA03F38B
:1005540024EA030391FAA1F151B1B1FA81F14900FE
:100564008A401343C3605DF8044B70472023EAE7D5
:100574002021F4E710B4046A91FAA1F3A3B1B3FA09
:1005840083F39B004FF00F0C0CFA03F324EA0303EC
:1005940091FAA1F151B1B1FA81F189008A40134372
:1005A40003625DF8044B70472023EAE72021F4E757
:1005B40070B58CB000230A930B93049305930693B0
:1005C4000793089309932F4B1A6B42F004021A63A2
:1005D4001A6B02F004020392039A1A6B42F080022F
:1005E4001A631A6B02F080020292029A1A6B42F0AA
:1005F40001021A631A6B02F001020192019A1A6B4A
:1006040042F002021A631B6B03F002030093009B87
:100614001D4B4FF400129A61A3F548435A6922F026
:10062400F002F02393FAA3F353B3B3FA83F3022152
:1006340001FA03F31343154A53614FF400540A9427
:1006440001258DF82C508DF82E100AA800F030FDED
:100654000F4E002221463046FFF76EFF002221464E
:100664003046FFF74BFF20230493059500230693A0
:100674000793089304A9044800F0A0FB0CB070BDD4
:100684002023D4E700380240000002400038014033
:100694000008024030B591B0202200210DEB020089
:1006A40000F057FE002502950395049505950695DF
:1006B4000795224C236B43F002032363236B03F05F
:1006C40002030193019B4FF44073029302230393AB
:1006D40003230493012305930423079302A91848D1
:1006E40000F06CFB236C43F400132364236C03F4C9
:1006F40000130093009BA4F5F234E36823F0010394
:10070400E360236823F040032360236823F080031D
:10071400236008950B4B09930A950D954FF480635C
:100724000E934FF480430F9308A9204600F0ECFB8E
:10073400E36823F0FE03E36011B030BD00380240EB
:1007440000040240A086010030B591B00024099451
:100754000A940B940C940D940E940F9403940494A3
:1007640005940694079408941C4B1A6C42F40032C6
:100774001A641A6C02F400320292029A1A6B42F062
:1007840001021A631B6B03F001030193019B0C2507
:10079400039502230493072308930DEB05011048E6
:1007A40000F00CFB4FF4E13309930A940B940C947E
:1007B4000D950E940F940B4C09A9204600F04AFDA8
:1007C400236923F490432361636923F02A0363615B
:1007D400E36843F40053E36011B030BD00380240D5
:1007E40000000240004400404FF0000C08E00368A1
:1007F40013F0800FFBD011F80C3043600CF1010CA6
:100804009445F4D3036813F0400FFBD07047000005
:100814000D4B5A680D4B5B69034210D10A4B5B6860
:100824009B1A8B420DD2094B5B6913F4806FF1D094
:10083400064A536923F480635361012070470320FF
:1008440070470020704700BF001000E000540040D3
:1008540070B5374A136823F001031360354C63689D
:1008640043F040036360012240212046FFF746FE27
:10087400002280212046FFF741FE0025082D11DCCF
:100884002C4C4FF48003A361052000F0F5FB4023BA
:10089400A361052000F0F0FB236913F0800F01D160
:1008A4000135EBE7234C636843F080036360012266
:1008B40080212046FFF722FE4FF48003A3614FF40A
:1008C4000003A361012000F0D7FB4026A6610120AC
:1008D40000F0D2FB8025A561052000F0CDFB636804
:1008E40033436360022231462046FFF707FE0222AB
:1008F40029462046FFF702FE042231462046FFF730
:1009040039FE042229462046FFF734FEA4F5D834E4
:10091400236843F400432360236823F400432360E3
:10092400FFF7B8FE236843F00103236070BD00BFE6
:10093400005400400004024010B5364A136823F006
:10094400070343F002031360324B1B6803F00703F1
:10095400022BF9D1304A136823F4404343F4004393
:10096400136002F5E432136823F0F80343F08003C4
:100974001360136843F001031360284B1B6813F0E2
:10098400020FFAD0254A5168254B0B4043F4A84383
:1009940043F010035360536823F4403343F480332B
:1009A4005360136843F0807313601C4B1B6813F08F
:1009B400007FFAD0184B5B6813F4804FFAD0174BC2
:1009C4009A6822F0F0029A609A6822F4E05242F4A3
:1009D40080529A609A6822F460429A609A6822F07F
:1009E400030242F002029A600C4B9B6803F00C0372
:1009F400082BF9D10B4C204600F02EFB204600F0CA
:100A040051FB064AD2F88C3023F08073C2F88C3044
:100A140010BD00BF003C024000700040003802409E
:100A24000080BFFF00BD010510B584B07F4B5A6C38
:100A340042F480425A645A6C02F480420292029A4E
:100A44001A6C42F080521A641B6C03F080530193B9
:100A5400019B774CE26822F4E0621204120C754B9D
:100A64001343E360FFF768FFFFF7A2FDFFF712FEF1
:100A7400FFF76AFED4F8FC3043F08073C4F8FC300E
:100A84006D4B1A6842F001021A6000225A6011226A
:100A94006A496B48FFF7A8FE6A4B1B6813F0010F05
:100AA4001AD1684A136843F00103136014E0654ADD
:100AB400136843F48073136063490120FFF7A8FEB1
:100AC40003281ED0212261495D48FFF78DFEFFF700
:100AD400BFFE322000F0D0FA574B5968594B9B693E
:100AE40013F0020FE3D0544B5B685B1A584A9342ED
:100AF400F4D9372257495248FFF776FEFFF7A8FE8C
:100B0400D5E71B2254494E48FFF76EFE90238DF81B
:100B140003309DF803304B490A6922F0FF02134366
:100B24000B6100238DF80330434B5968424B5B68DB
:100B34005B1A474A93424AD8424B5B6913F4806F6D
:100B440037D1404B5B6913F0020FEFD03D4C636922
:100B54000393039BA3690393039B12223F493848E1
:100B6400FFF742FE236923F0FF0343F06903236187
:100B740035490420FFF74CFE032833D115223849A8
:100B84002F48FFF731FE2F4A136923F0FF03136147
:100B94002D490420FFF73CFE03282ED0362231498C
:100BA4002748FFF721FEFFF753FE322000F064FAD6
:100BB40092E71B222C492248FFF716FE214B5A6963
:100BC40022F480625A611A6842F400721A602D227B
:100BD40026491B48FFF708FEFFF73AFE322000F0D3
:100BE4004BFA79E7352222491548FFF7FDFDFFF757
:100BF4002FFE322000F040FA6EE715221D491048FE
:100C0400FFF7F2FD0F4A136843F4007313600D4BB2
:100C14009B6913F0020FFAD11B2217490848FFF70A
:100C2400E3FD4FF4FA7000F027FA55E7003802406C
:100C340000ED00E00003FA05001000E0C81300080E
:100C440000440040005400408032020014140008A4
:100C54007F320200DC130008381400087014000806
:100C6400EC14000804150008541400088414000847
:100C7400B41400083C15000854150008FEE7FEE70C
:100C8400FEE7FEE7FEE7704770477047704710B411
:100C9400046891FAA1F3A3B1B3FA83F35B004FF0B4
:100CA400030C0CFA03F324EA030391FAA1F151B102
:100CB400B1FA81F149008A40134303605DF8044BA3
:100CC40070472023EAE72021F4E710B4846891FAFE
:100CD400A1F3A3B1B3FA83F35B004FF0030C0CFA56
:100CE40003F324EA030391FAA1F151B1B1FA81F1BA
:100CF40049008A40134383605DF8044B7047202306
:100D0400EAE72021F4E710B4C46891FAA1F3A3B18F
:100D1400B3FA83F35B004FF0030C0CFA03F324EAF9
:100D2400030391FAA1F151B1B1FA81F149008A406A
:100D34001343C3605DF8044B70472023EAE7202186
:100D4400F4E710B4046A91FAA1F3A3B1B3FA83F3FC
:100D54009B004FF00F0C0CFA03F324EA030391FAFF
:100D6400A1F151B1B1FA81F189008A4013430362C0
:100D74005DF8044B70472023EAE72021F4E710B420
:100D8400446A090A91FAA1F3A3B1B3FA83F39B006D
:100D94004FF00F0C0CFA03F324EA030491FAA1F1C7
:100DA40051B1B1FA81F189008A40144344625DF87B
:100DB400044B70472023EAE72021F4E7F8B50746FF
:100DC4000E460D6895FAA5F515B1B5FA85F51AE044
:100DD400202518E0B26821463846FFF776FFF2680E
:100DE4007B6823EA040304FB02F213437B6016E0EE
:100DF400726921463846FFF7C2FF726821463846B9
:100E0400FFF745FF0135346834FA05F21DD001229D
:100E1400AA401440F6D07368013B012BDAD9326939
:100E240021463846FFF76FFF7368022BE5D194FA29
:100E3400A4F3002BDCD0B3FA83F3072BD8D8726960
:100E440021463846FFF77DFFD7E70020F8BD0000B4
:100E540030B52A4CA4FB014E4FEA9E4C446824F062
:100E64003F0444EA9E444460046A24F03F04244D51
:100E7400AA421BD80CF1010C44EA0C040462204C75
:100E8400A24231D9F3B902EB4202B1FBF2F2C2F34E
:100E94000B0119B342F400410B43C26922F44F4CD5
:100EA4002CF0FF0C4CEA0303C36130BD4FF496757C
:100EB40005FB0CFC134DA5FB0C5C4FEA9C1C0CF1D0
:100EC400010CD9E702EB820202EB8202B1FBF2F2DF
:100ED400C2F30B0129B142F40041DDE748F20101FC
:100EE400DAE748F20101D7E75200B1FBF2F340F62A
:100EF400FC721342D1D10423CFE700BF83DE1B432E
:100F0400A0860100D34D621030B585B004460D466D
:100F1400036823F001030360684600F08DF8EA6873
:100F24002969636A23F01F030A4313436362AB68AE
:100F34006A6802992046FFF78BFF6A69E969A3682A
:100F440023F4034323F0FF030A431343A3602B68F2
:100F5400226822F01A0213432360236843F001033A
:100F64002360AB69226822F480621343236000206B
:100F740005B030BD034B9B68C3F30313024AD35C33
:100F8400D84070470038024078150008034B9B682E
:100F9400C3F38223024AD35CD8407047003802402E
:100FA40070150008034B9B68C3F34233024AD35CB9
:100FB400D840704700380240701500080F4B5B683A
:100FC40003F4800323B90E4B082803D00020704794
:100FD4000C4BF9E7094A516801F03F01B3FBF1F00A
:100FE4005368C3F3881303FB00F05368C3F301434E
:100FF40001335B00B0FBF3F0704700BF00380240E0
:101004000024F40000127A0008B5084B9B6803F032
:101014000C03042B05D0082B05D10820FFF7CEFFC5
:1010240008BD0348FCE70348FAE700BF0038024064
:1010340000127A000024F40010B50446FFF7E4FF20
:101044002060FFF797FF6060FFF7A0FFA060606873
:10105400FFF7A8FFE06010BD064BA3FB00239B092C
:10106400013B4FF0E0225361002393610523136198
:10107400704700BFD34D621082B04FF0E0231B696C
:101084000193019BB0F1FF3F00D0013038B14FF024
:10109400E0231B6913F4803FF8D00138F6E702B06F
:1010A40070470000014B1860704700BF000000202B
:1010B40010B403460079002852D01A68002A5DD083
:1010C4005879012820D0022829D0002831D12D496F
:1010D4004C6824EA02024A601A680C6822430A60D7
:1010E4009A79002A47D0022A25D0032A2ED0012A31
:1010F40046D11C68234AD16821EA0401D1601B68E7
:1011040091680B43936036E01E49086820EA0202A6
:101114000A601A68486802434A600020E0E71949F7
:10112400086802430A601A68486802434A6000205B
:10113400D6E70120D4E71C68124A916821EA040129
:1011440091601B68D1680B43D36014E019680D4AA1
:101154009468214391601B68D1680B43D3600AE013
:10116400084A11681C6821EA04011160196853686F
:1011740023EA010353605DF8044B70470020FAE74B
:101184000120F8E7003C014010B50446B2F5004FD9
:101194002FD04FF0000C48184CEB0C0C40184CF1BD
:1011A400000C4FEACC0C4CEA507CC00040184FEACB
:1011B40083024FEA93734CF10001FFF709F82449C5
:1011C400A1FB00235B091A0192B24FF0640C0CFBE3
:1011D40013031B013233A1FB0313C3F34F1303F0B7
:1011E400F0010A4492B203F00F0313449BB2A360CC
:1011F40010BD4FF0000C48184CEB0C02401842F1A3
:101204000002D20042EA5072C000401842F10001CC
:10121400DA184CEB0C03FEF7DBFF0D49A1FB0023AE
:101224005B091A0192B24FF0640C0CFB1303DB0050
:101234003233A1FB0313C3F34F13590001F4F871C4
:101244000A4492B203F0070313449BB2A360CFE7AE
:101254001F85EB51C36813F4005F01D00120704770
:1012640030B585B004460D46C36823F4164323F015
:101274000C034A68C9680A4329690A43A9690A43ED
:101284001343C360AB68026922F440521343036101
:101294006B69426922F44072134343616846FFF765
:1012A400CBFE0F4B9C4208D00E4B9C420BD00E4BF6
:1012B4009C420AD0012005B030BD039969B12B6866
:1012C4002BB90120F7E70299F8E70399F6E7AA6931
:1012D4002046FFF759FF0020EDE70120EBE700BFB0
:1012E400001001400044004000140140034AD2F8B9
:1012F400883043F47003C2F88830704700ED00E092
:10130400DFF834D0FFF7F2FF0C480D490D4A0023F3
:1013140002E0D458C4500433C4188C42F9D30A4AA6
:101324000A4C002301E013600432A242FBD300F014
:1013340019F8FFF779FB70470080012000000020B6
:10134400040000209815000804000020200000205C
:10135400FEE702440346934200D1704703F8011BA1
:10136400F9E7000070B50D4D0D4C641BA410002668
:10137400A64209D10B4D0C4C00F018F8641BA410C4
:101384000026A64205D170BD55F8043B98470136A6
:10139400EEE755F8043B98470136F2E7901500084C
:1013A400901500089015000894150008F8B500BFC2
:1013B400F8BC08BC9E467047F8B500BFF8BC08BC32
:0413C4009E4670478A
:1013C80053797374656D20626F6F74696E672E2E22
:1013D8000A0000004552524F523A2042757320735A
:1013E8007475636B20425553592075706F6E206574
:1013F8006E7472792C20747279696E6720746F200C
:10140800667265652069742E2E2E0A004552524F69
:10141800523A20535441525420434F4E4449544960
:101428004F4E2054696D656F757421200A000000C5
:10143800537461727420436F6E646974696F6E20AF
:1014480044657465637465642E2E0A004552524FD4
:10145800523A204E41434B206E6F74206465746588
:10146800637465642E2E2E00416464726573732064
:101478004465746563746564210A00004552524FDF
:10148800523A20416464726573732054696D656FC4
:101498007574206F72204E41434B2C207265636F28
:1014A800766572696E672E2E0A0000004552524F0B
:1014B800523A2046697273742042797465205472D6
:1014C800616E736D697373696F6E204661696C65CF
:1014D8006420284254462054696D656F7574292E1E
:1014E8000A000000317374204D65737361676520CD
:1014F80053656E74212E2E2E0A0000004552524F5D
:10150800523A205365636F6E6420427974652054A3
:1015180072616E736D697373696F6E204661696C71
:10152800656420284254462054696D656F75742996
:101538002E0A0000326E64204D6573736167652062
:1015480053656E74212E2E2E0A00000053746F709E
:1015580020436F6E646974696F6E2047656E6572AB
:10156800617465642E2E0A00000000000102030465
:10157800000000000000000001020304060708093B
:081588007CECFF7F0100000074
:04159000B901000895
:0415940095010008B5
:041598000024F40037
:0400000508001305D7
:00000001FF
