:020000040800F2
:1000000000800120150F0008690900086B0900082D
:100010006D0900086F090008710900080000000060
:10002000000000000000000000000000730900084C
:100030007509000800000000770900087909000828
:10004000650F0008650F0008650F0008650F0008C0
:10005000650F0008650F0008650F0008650F0008B0
:10006000650F0008650F0008650F0008650F0008A0
:10007000650F0008650F0008650F0008650F000890
:10008000650F0008650F0008650F000800000000FC
:10009000000000000000000000000000650F0008E4
:1000A000650F0008650F0008650F0008650F000860
:1000B000650F0008650F0008650F0008650F000850
:1000C000650F0008650F0008650F0008650F000840
:1000D000650F0008650F0008650F000800000000AC
:1000E000650F0008650F0008650F0008000000009C
:1000F000000000000000000000000000650F000884
:1001000000000000650F0008650F0008650F00087B
:1001100000000000000000000000000000000000DF
:10012000650F0008650F0008650F0008650F0008DF
:10013000650F000800000000000000000000000043
:10014000000000000000000000000000650F000833
:10015000650F0008650F0008650F0008650F0008AF
:10016000650F0008650F0008000000000000000097
:10017000000000000000000000000000000000007F
:1001800000000000650F00080000000000000000F3
:04019000650F0008EF
:1001940010B5054C237833B9044B13B10448AFF3BD
:1001A40000800123237010BD040000200000000023
:1001B400C00F000808B5034B1BB103490348AFF354
:1001C400008008BD0000000008000020C00F0008E7
:1001D40053B94AB9002908BF00281CBF4FF0FF31AA
:1001E4004FF0FF3000F088B9ADF1080C6DE904CE92
:1001F40000F006F8DDF804E0DDE9022304B07047FE
:100204002DE9F047089D8E4604468846002B4AD1C6
:100214008A42174662D9B2FA82F64EB1C6F1200379
:1002240001FA06F820FA03F3B74043EA0808B44099
:100234004FEA174E1FFA87FCB8FBFEF1230C0EFBA6
:10024400118843EA084301FB0CF29A4209D9FB18CE
:1002540001F1FF3080F0EA809A4240F2E7800239EF
:100264003B449A1AA3B2B2FBFEF00EFB102243EAFF
:10027400024300FB0CFC9C4509D9FB1800F1FF323A
:1002840080F0D6809C4540F2D3803B44023840EA5B
:100294000140A3EB0C0300211DB1F3400022C5E98A
:1002A4000032BDE8F0878B4205D90DB1C5E90001E4
:1002B40000210846F5E7B3FA83F1002946D17345D6
:1002C40002D3824200F20581841A6EEB03020120FC
:1002D4009046002DE5D0C5E90048E2E7002A00F089
:1002E4009080B2FA82F6002E40F0A4808A1A030CA1
:1002F4004FEA174E80B2BCB20121B2FBFEFC0EFBEA
:100304001C2243EA024304FB0CF29A4207D9FB186D
:100314000CF1FF3802D29A4200F2E080C4469B1AE4
:10032400B3FBFEF20EFB123340EA034302FB04F478
:100334009C4207D9FB1802F1FF3002D29C4200F222
:10034400CA8002461B1B42EA0C40A5E7C1F1200605
:100354008B4022FA06F71F430EFA01F420FA06F343
:100364002EFA06FE4FEA1749234300FA01F81FFA52
:1003740087FCBEFBF9F01C0C09FB10EE44EA0E44AA
:1003840000FB0CFEA64502FA01F209D93C1900F162
:10039400FF3A80F09C80A64540F2998002383C44A4
:1003A400A4EB0E041FFA83FEB4FBF9F309FB134418
:1003B4004EEA044403FB0CFCA44508D93C1903F1A0
:1003C400FF3E80F08280A4457FD9023B3C4443EA4F
:1003D4000040A4EB0C04A0FB02EC64457346E14628
:1003E40062D35FD05DB1B8EB030264EB090404FA95
:1003F40006F622FA01F31E43CC40C5E9006400214D
:100404004FE7B1FBF2FC010C41EA0E4180B240EA35
:1004140001423B4638463C46B846BE462026B1FB20
:10042400F7F1A2EB080241EA0C4166E7014618E73E
:1004340010462CE7C6F120022EFA02F3B740B14071
:1004440020FA02F24FEA174E0A43B3FBFEF8BCB29D
:100454000EFB1833110C41EA034108FB04F9B040C8
:1004640089454FEA104380B23ED9791808F1FF3C20
:1004740001D289451FD8A1EB0901B1FBFEF909FBA3
:1004840004F80EFB191192B242EA0142424529D204
:10049400BA1809F1FF31C4D24245C2D2A9F102010E
:1004A4003A44BEE7F0459DD2BEEB02036CEB070C69
:1004B4000138E14696E7A7EB09094944A8F1020C83
:1004C400B1FBFEF909FB04F8DBE773467FE750460E
:1004D40066E70846FDE63B44023A33E7ACF1020C1A
:1004E4003B441CE749469CE7A1EB0901C446B1FB28
:1004F400FEF909FB04F8C4E7704700BF00B500F03B
:100504000700C0F1070CBCF1040F28BF4FF0040C26
:10051400031D062B0FD9C31E4FF0FF3E0EFA0CF03D
:1005240021EA000199400EFA03FE22EA0E0241EA92
:1005340002005DF804FB0023EEE7000082B00A4BE2
:100544001A6B42F001021A631A6B02F00102019263
:10055400019A1A6B42F002021A631B6B03F0020346
:100564000093009B02B070470038024030B591B050
:10057400202200210DEB020000F0F3FC002502957F
:1005840003950495059506950795224C236B43F036
:1005940002032363236B03F002030193019BC02333
:1005A4000293022303930323049301230593042357
:1005B400079302A9184800F075FA236C43F400135A
:1005C4002364236C03F400130093009BA4F5F2341A
:1005D400E36823F00103E360236823F0400323600E
:1005E400236823F08003236008950C4B09930A9534
:1005F4000D954FF480630E934FF480430F9308A935
:10060400204600F0F5FAE36823F0FE03E36011B03E
:1006140030BD00BF0038024000040240A086010043
:1006240030B591B0002409940A940B940C940D9461
:100634000E940F94039404940594069407940894D8
:100644001D4B1A6C42F400321A641A6C02F4003224
:100654000292029A1A6B42F001021A631B6B03F0B6
:1006640001030193019B0C250395022304930323A7
:100674000593072308930DEB0501104800F012FAC7
:100684004FF4E13309930A940B940C940D950E9452
:100694000F940B4C09A9204600F0E4FB236923F4D2
:1006A40090432361636923F02A036361E36843F49D
:1006B4000053E36011B030BD003802400000024036
:1006C400004400404FF0000C08E0036813F0800F72
:1006D400FBD011F80C3043600CF1010C9445F4D3B9
:1006E400036813F0400FFBD0704700000D4B5A68AD
:1006F4000D4B5B69034211D10A4B5B689B1A8B4219
:100704000ED2094B5B6913F4806FF1D0064B5A6922
:1007140022F480625A615B690120704703207047AC
:1007240000207047001000E00054004010B5234A38
:10073400136823F007031360204B1B6813F0070FA3
:10074400FAD11F4A136823F4404343F4004313606F
:1007540002F5E432136823F0F80343F080031360D6
:10076400136843F001031360164B1B6813F0020F68
:10077400FAD0144B9A6822F0F0029A609A6822F434
:10078400E0529A609A6822F460429A609A6822F071
:1007940003029A600B4B9B6813F00C0FFAD10A4CBE
:1007A400204600F0CDFA204600F0F0FA054AD2F8CF
:1007B4008C3023F08073C2F88C3010BD003C0240B2
:1007C40000700040003802400024F40010B584B0EA
:1007D400564B5A6C42F480425A645A6C02F480427A
:1007E4000292029A1A6C42F080521A641B6C03F053
:1007F40080530193019B4E4CE26822F4E0621204A0
:10080400120C4C4B1343E360E06800220F21C0F349
:100814000220FFF773FE0301DBB284F82330FFF7F5
:1008240085FFD4F8FC3043F08073C4F8FC30424BAD
:1008340000225A60FFF782FEFFF798FEFFF7F0FEF2
:1008440011223E493E48FFF73DFF3E4B1B6813F023
:10085400010F12D13B4A136843F0010313600CE00B
:10086400242239492046FFF72DFF364A136843F402
:1008740000731360322000F073FA314C10223349B4
:100884002046FFF71FFF122231492046FFF71AFFC7
:100894002C4A136843F48073136012222D492046B6
:1008A400FFF710FF4FF461510120FFF71FFF0028ED
:1008B400D6D0234C122228492046FFF703FF1222E8
:1008C40026492046FFF7FEFE90238DF803309DF85D
:1008D40003301C490A6922F0FF0213430B61002311
:1008E4008DF803304FF461510220FFF7FFFE012819
:1008F4000ED0144B5A690392039A9A690392039A8D
:100904009DF80320196921F0FF010A431A61B4E735
:100914001E2213492046FFF7D5FE0A4A136843F402
:1009240000731360322000F01BFAA6E7003802407F
:1009340000ED00E00003FA05001000E0D80F000805
:10094400004400400054004028100008EC0F000848
:10095400001000081410000850100008641000086B
:1009640078100008FEE7FEE7FEE7FEE7FEE77047C3
:1009740070477047704710B4046891FAA1F3A3B1AB
:10098400B3FA83F35B004FF0030C0CFA03F324EA8D
:10099400030391FAA1F151B1B1FA81F149008A40FE
:1009A400134303605DF8044B70472023EAE72021DA
:1009B400F4E710B4846891FAA1F3A3B1B3FA83F312
:1009C4005B004FF0030C0CFA03F324EA030391FADF
:1009D400A1F151B1B1FA81F149008A401343836016
:1009E4005DF8044B70472023EAE72021F4E710B4B4
:1009F400C46891FAA1F3A3B1B3FA83F35B004FF097
:100A0400030C0CFA03F324EA030391FAA1F151B1A4
:100A1400B1FA81F149008A401343C3605DF8044B85
:100A240070472023EAE72021F4E710B4046A91FA1E
:100A3400A1F3A3B1B3FA83F39B004FF00F0C0CFAAC
:100A440003F324EA030391FAA1F151B1B1FA81F15C
:100A540089008A40134303625DF8044B70472023E6
:100A6400EAE72021F4E710B4446A090A91FAA1F3F1
:100A7400A3B1B3FA83F39B004FF00F0C0CFA03F30A
:100A840024EA030491FAA1F151B1B1FA81F1890088
:100A94008A40144344625DF8044B70472023EAE71C
:100AA4002021F4E7F8B507460E460D6895FAA5F53A
:100AB40015B1B5FA85F51AE0202518E0B26821468B
:100AC4003846FFF776FFF2687B6823EA040304FBE9
:100AD40002F213437B6016E0726921463846FFF741
:100AE400C2FF726821463846FFF745FF0135346876
:100AF40034FA05F21DD00122AA401440F6D07368DE
:100B0400013B012BDAD9326921463846FFF76FFFE2
:100B14007368022BE5D194FAA4F3002BDCD0B3FA6A
:100B240083F3072BD8D8726921463846FFF77DFF37
:100B3400D7E70020F8BD000030B52A4CA4FB014ED5
:100B44004FEA9E4C446824F03F0444EA9E444460C7
:100B5400046A24F03F04244DAA421BD80CF1010C72
:100B640044EA0C040462204CA24231D9F3B902EBEA
:100B74004202B1FBF2F2C2F30B0119B342F4004199
:100B84000B43C26922F44F4C2CF0FF0C4CEA0303D4
:100B9400C36130BD4FF4967505FB0CFC134DA5FBEA
:100BA4000C5C4FEA9C1C0CF1010CD9E702EB8202AD
:100BB40002EB8202B1FBF2F2C2F30B0129B142F45F
:100BC4000041DDE748F20101DAE748F20101D7E725
:100BD4005200B1FBF2F340F6FC721342D1D104236C
:100BE400CFE700BF83DE1B43A0860100D34D621014
:100BF40030B585B004460D46036823F00103036055
:100C0400684600F08DF8EA682969636A23F01F03D7
:100C14000A4313436362AB686A6802992046FFF78C
:100C24008BFF6A69E969A36823F4034323F0FF0394
:100C34000A431343A3602B68226822F01A02134369
:100C44002360236843F001032360AB69226822F424
:100C5400806213432360002005B030BD034B9B68C2
:100C6400C3F30313024AD35CD840704700380240F0
:100C7400A0100008034B9B68C3F38223024AD35C91
:100C8400D84070470038024098100008034B9B6816
:100C9400C3F34233024AD35CD84070470038024061
:100CA400981000080F4B5B6803F4800323B90E4BC4
:100CB400082803D0002070470C4BF9E7094A516813
:100CC40001F03F01B3FBF1F05368C3F3881303FB56
:100CD40000F05368C3F3014301335B00B0FBF3F04E
:100CE400704700BF003802400024F40040787D01C2
:100CF40008B5084B9B6803F00C03042B05D0082BA4
:100D040005D10820FFF7CEFF08BD0348FCE70348E0
:100D1400FAE700BF0038024040787D010024F40067
:100D240010B50446FFF7E4FF2060FFF797FF60600B
:100D3400FFF7A0FFA0606068FFF7A8FFE06010BDA8
:100D4400064BA3FB00239B09013B4FF0E0225361B8
:100D54000023936105231361704700BFD34D6210D4
:100D640082B04FF0E0231B690193019BB0F1FF3F78
:100D740000D0013038B14FF0E0231B6913F4803FF9
:100D8400F8D00138F6E702B070470000014B186054
:100D9400704700BF0000002010B50446B2F5004FB4
:100DA4002FD04FF0000C48184CEB0C0C40184CF1B1
:100DB400000C4FEACC0C4CEA507CC00040184FEABF
:100DC40083024FEA93734CF10001FFF701FA2449BF
:100DD400A1FB00235B091A0192B24FF0640C0CFBD7
:100DE40013031B013233A1FB0313C3F34F1303F0AB
:100DF400F0010A4492B203F00F0313449BB2A360C0
:100E040010BD4FF0000C48184CEB0C02401842F196
:100E14000002D20042EA5072C000401842F10001C0
:100E2400DA184CEB0C03FFF7D3F90D49A1FB0023AF
:100E34005B091A0192B24FF0640C0CFB1303DB0044
:100E44003233A1FB0313C3F34F13590001F4F871B8
:100E54000A4492B203F0070313449BB2A360CFE7A2
:100E64001F85EB51C36813F4005F01D00120704764
:100E740030B585B004460D46C36823F4164323F009
:100E84000C034A68C9680A4329690A43A9690A43E1
:100E94001343C360AB68026922F4405213430361F5
:100EA4006B69426922F44072134343616846FFF759
:100EB40037FF0F4B9C4208D00E4B9C420BD00E4B7D
:100EC4009C420AD0012005B030BD039969B12B685A
:100ED4002BB90120F7E70299F8E70399F6E7AA6925
:100EE4002046FFF759FF0020EDE70120EBE700BFA4
:100EF400001001400044004000140140034AD2F8AD
:100F0400883043F47003C2F88830704700ED00E085
:100F1400DFF834D0FFF7F2FF0C480D490D4A0023E7
:100F240002E0D458C4500433C4188C42F9D30A4A9A
:100F34000A4C002301E013600432A242FBD300F008
:100F440019F8FFF743FC70470080012000000020DF
:100F540004000020C010000804000020200000202D
:100F6400FEE702440346934200D1704703F8011B95
:100F7400F9E7000070B50D4D0D4C641BA41000265C
:100F8400A64209D10B4D0C4C00F018F8641BA410B8
:100F94000026A64205D170BD55F8043B984701369A
:100FA400EEE755F8043B98470136F2E7B81000081D
:100FB400B8100008B8100008BC100008F8B500BF4D
:100FC400F8BC08BC9E467047F8B500BFF8BC08BC26
:040FD4009E4670477E
:100FD80053797374656D20626F6F74696E672E2E16
:100FE8000A0000005374696C6C20776F726B696E2D
:100FF800672E2E0A000000005374696C6C20776F0E
:10100800726B696E6778322E2E0A00005374696C11
:101018006C20776F726B696E6778332E2E0A00002A
:1010280054696D656F7574204572726F722E202831
:101038004552524F525F54494D454F555420464CE6
:101048004147290A000000005374696C6C20776FCF
:10105800726B696E6778342E2E0A00005374696CBF
:101068006C20776F726B696E6778352E2E0A0000D8
:101078004E41434B204572726F722E2028455252C2
:101088004F525F4E41434B20464C4147290A0000CE
:10109800000000000102030400000000000000003E
:0810A800010203040607080918
:0810B00054F1FF7F0100000074
:0410B800B901000872
:0410BC009501000892
:0410C0000024F40014
:0400000508000F15CB
:00000001FF
