:020000040800F2
:1000000000800120210700086D0400086F0400082B
:100010007104000873040008750400080000000063
:10002000000000000000000000000000770400084D
:1000300079040008000000007B0400087D0400082B
:1000400071070008710700087107000871070008B0
:1000500071070008710700087107000871070008A0
:100060007107000871070008710700087107000890
:100070007107000871070008710700087107000880
:1000800071070008710700087107000800000000F0
:1000900000000000000000000000000071070008E0
:1000A0007107000871070008710700087107000850
:1000B0007107000871070008710700087107000840
:1000C0007107000871070008710700087107000830
:1000D00071070008710700087107000800000000A0
:1000E0007107000871070008710700080000000090
:1000F0000000000000000000000000007107000880
:10010000000000007107000871070008710700086F
:1001100000000000000000000000000000000000DF
:1001200071070008710700087107000871070008CF
:10013000710700080000000000000000000000003F
:10014000000000000000000000000000710700082F
:10015000710700087107000871070008710700089F
:10016000710700087107000800000000000000008F
:10017000000000000000000000000000000000007F
:1001800000000000710700080000000000000000EF
:0401900071070008EB
:1001940010B5054C237833B9044B13B10448AFF3BD
:1001A40000800123237010BD040000200000000023
:1001B400CC07000808B5034B1BB103490348AFF350
:1001C400008008BD0000000008000020CC070008E3
:1001D40000B500F00700C0F1070CBCF1040F28BF04
:1001E4004FF0040C031D062B0FD9C31E4FF0FF3E26
:1001F4000EFA0CF021EA000199400EFA03FE22EAFD
:100204000E0241EA02005DF804FB0023EEE7000061
:1002140000B589B0002302930393049305930693D6
:1002240007930C4B1A6B42F001021A631B6B03F029
:1002340001030193019B0848102383610293012366
:1002440003930323049302A900F0AEF909B05DF807
:1002540004FB00BF003802400000024010B592B019
:100264002822002108A800F082FA002402940394B2
:1002740004940594069407941C4B5A6C42F48052DF
:100284005A645A6C02F480520192019A1A6B42F039
:1002940001021A631B6B03F001030093009BE0232C
:1002A400029302230393032304930523079302A9D0
:1002B4000F4800F079F908944FF4827309930A9473
:1002C4000B940C944FF400730D9338230E930F94F6
:1002D40010940A231193074C08A9204600F0ADF9A5
:1002E400636823F01003636012B010BD003802404D
:1002F400000002400030014010B5234A136823F087
:1003040007031360204B1B6813F0070FFAD11F4A31
:10031400136823F4404343F40043136002F5E432CA
:10032400136823F0F80343F080031360136843F069
:1003340001031360164B1B6813F0020FFAD0144B21
:100344009A6822F0F0029A609A6822F4E0529A6065
:100354009A6822F460429A609A6822F003029A60D2
:100364000B4B9B6813F00C0FFAD10A4C204600F09B
:100374009FF9204600F0C2F9054AD2F88C3023F0E8
:100384008073C2F88C3010BD003C02400070004005
:10039400003802400024F40010B582B02D4B5A6C92
:1003A40042F480425A645A6C02F480420192019AE7
:1003B4001A6C42F080521A641B6C03F08053009351
:1003C400009B254CE26822F4E0621204120C234BD9
:1003D4001343E360E06800220F21C0F30220FFF71B
:1003E400F7FE0301DBB284F82330FFF785FFFFF744
:1003F4000FFFFFF733FF1A4A136843F040031360FB
:1004040022E033B9164B9B6813F00203F9D00123A1
:10041400F7E7134A0221117300E03AB9104A9268CF
:1004240012F00202F9D01A46F7E733B10C4B9B687D
:1004340013F08003F9D01346F7E70A4B10229A61B0
:100444004FF4FA6000F044F9064B4FF480129A61BD
:10045400D8E700BF0038024000ED00E00003FA05D1
:100464000030014000000240FEE7FEE7FEE7FEE741
:10047400FEE7704770477047704710B4046891FAFC
:10048400A1F3A3B1B3FA83F35B004FF0030C0CFAAE
:1004940003F324EA030391FAA1F151B1B1FA81F112
:1004A40049008A40134303605DF8044B70472023DE
:1004B400EAE72021F4E710B4846891FAA1F3A3B128
:1004C400B3FA83F35B004FF0030C0CFA03F324EA52
:1004D400030391FAA1F151B1B1FA81F149008A40C3
:1004E400134383605DF8044B70472023EAE720211F
:1004F400F4E710B4C46891FAA1F3A3B1B3FA83F397
:100504005B004FF0030C0CFA03F324EA030391FAA3
:10051400A1F151B1B1FA81F149008A401343C3609A
:100524005DF8044B70472023EAE72021F4E710B478
:10053400046A91FAA1F3A3B1B3FA83F39B004FF0D9
:100544000F0C0CFA03F324EA030391FAA1F151B15D
:10055400B1FA81F189008A40134303625DF8044BC8
:1005640070472023EAE72021F4E710B4446A090A1B
:1005740091FAA1F3A3B1B3FA83F39B004FF00F0CEC
:100584000CFA03F324EA030491FAA1F151B1B1FA8C
:1005940081F189008A40144344625DF8044B70473A
:1005A4002023EAE72021F4E7F8B507460E460D6854
:1005B40095FAA5F515B1B5FA85F51AE0202518E0E8
:1005C400B26821463846FFF776FFF2687B6823EA73
:1005D400040304FB02F213437B6016E072692146B4
:1005E4003846FFF7C2FF726821463846FFF745FFD9
:1005F4000135346834FA05F21DD00122AA401440B2
:10060400F6D07368013B012BDAD9326921463846AA
:10061400FFF76FFF7368022BE5D194FAA4F3002B64
:10062400DCD0B3FA83F3072BD8D872692146384655
:10063400FFF77DFFD7E70020F8BD0246036813F0FB
:10064400400F2ED110B4006820F47F4020F0BF008A
:100654000B684C6823438C682343CC6823430C69A0
:1006640023434C6923438C692343CC6923430C6A99
:10067400234318431060536823F00403C88A0343D8
:1006840053600B6AB3F5005F07D00020D36923F4ED
:100694000063D3615DF8044B70478B8C13610020B9
:1006A400F4E70120D36923F40063D36170470000A9
:1006B400064BA3FB00239B09013B4FF0E02253614F
:1006C4000023936105231361704700BFD34D62106B
:1006D40082B04FF0E0231B690193019BB0F1FF3F0F
:1006E40000D0013038B14FF0E0231B6913F4803F90
:1006F400F8D00138F6E702B070470000014B1860EB
:10070400704700BF00000020034AD2F8883043F449
:100714007003C2F88830704700ED00E0DFF834D091
:10072400FFF7F2FF0C480D490D4A002302E0D458AC
:10073400C4500433C4188C42F9D30A4A0A4C002327
:1007440001E013600432A242FBD300F019F8FFF772
:1007540023FE7047008001200000002004000020D8
:10076400EC0700080400002020000020FEE70244FB
:100774000346934200D1704703F8011BF9E70000D8
:1007840070B50D4D0D4C641BA4100026A64209D172
:100794000B4D0C4C00F018F8641BA4100026A64264
:1007A40005D170BD55F8043B98470136EEE755F87E
:1007B400043B98470136F2E7E4070008E407000821
:1007C400E4070008E8070008F8B500BFF8BC08BC57
:1007D4009E467047F8B500BFF8BC08BC9E467047FB
:0407E400B90100084F
:0407E800950100086F
:0407EC000024F400F1
:0400000508000721C7
:00000001FF
