:020000040800F2
:1000000000800120490B0008290600082B06000883
:100010002D0600082F060008310600080000000029
:10002000000000000000000000000000330600088F
:1000300035060008000000003706000839060008F1
:10004000990B0008990B0008990B0008990B000800
:10005000990B0008990B0008990B0008990B0008F0
:10006000990B0008990B0008990B0008990B0008E0
:10007000990B0008990B0008990B0008990B0008D0
:10008000990B0008990B0008990B0008000000006C
:10009000000000000000000000000000990B0008B4
:1000A000990B0008990B0008990B0008990B0008A0
:1000B000990B0008990B0008990B0008990B000890
:1000C000990B0008990B0008990B0008990B000880
:1000D000990B0008990B0008990B0008000000001C
:1000E000990B0008990B0008990B0008000000000C
:1000F000000000000000000000000000990B000854
:1001000000000000990B0008990B0008990B0008EB
:1001100000000000000000000000000000000000DF
:10012000990B0008990B0008990B0008990B00081F
:10013000990B000800000000000000000000000013
:10014000000000000000000000000000990B000803
:10015000990B0008990B0008990B0008990B0008EF
:10016000990B0008990B0008000000000000000037
:10017000000000000000000000000000000000007F
:1001800000000000990B00080000000000000000C3
:04019000990B0008BF
:1001940010B5054C237833B9044B13B10448AFF3BD
:1001A40000800123237010BD040000200000000023
:1001B400F40B000808B5034B1BB103490348AFF324
:1001C400008008BD0000000008000020F40B0008B7
:1001D40010B4046891FAA1F3A3B1B3FA83F35B00FA
:1001E4004FF0030C0CFA03F324EA030391FAA1F190
:1001F40051B1B1FA81F149008A40134303605DF8BB
:10020400044B70472023EAE72021F4E710B4C468C4
:1002140091FAA1F3A3B1B3FA83F35B004FF0030C9B
:100224000CFA03F324EA030391FAA1F151B1B1FAF0
:1002340081F149008A401343C3605DF8044B704761
:100244002023EAE72021F4E770B58CB000230A9359
:100254000B930493059306930793089309932F4BE9
:100264001A6B42F004021A631A6B02F0040203923E
:10027400039A1A6B42F080021A631A6B02F080022E
:100284000292029A1A6B42F001021A631A6B02F08C
:1002940001020192019A1A6B42F002021A631B6B6B
:1002A40003F002030093009B1D4B4FF400129A616C
:1002B400A3F548435A6922F0F002F02393FAA3F31A
:1002C40053B3B3FA83F3022101FA03F31343154A38
:1002D40053614FF400540A9401258DF82C508DF885
:1002E4002E100AA800F0B8FB0F4E0022214630461B
:1002F400FFF78CFF002221463046FFF769FF2023D9
:1003040004930595002306930793089304A90448CE
:1003140000F028FA0CB070BD2023D4E70038024066
:1003240000000240003801400008024030B591B09E
:10033400202200210DEB020000F02DFC0025029587
:1003440003950495059506950795224C236B43F078
:1003540002032363236B03F002030193019BC02375
:100364000293022303930323049301230593042399
:10037400079302A9184800F0F5F9236C43F400131D
:100384002364236C03F400130093009BA4F5F2345C
:10039400E36823F00103E360236823F04003236050
:1003A400236823F08003236008950C4B09930A9576
:1003B4000D954FF480630E934FF480430F9308A977
:1003C400204600F075FAE36823F0FE03E36011B001
:1003D40030BD00BF0038024000040240A086010086
:1003E40010B5364A136823F0070343F00203136081
:1003F400324B1B6803F00703022BF9D1304A136810
:1004040023F4404343F40043136002F5E4321368D9
:1004140023F0F80343F080031360136843F00103EF
:100424001360284B1B6813F0020FFAD0254A516859
:10043400254B0B4043F4A84343F010035360536827
:1004440023F4403343F480335360136843F08073E0
:1004540013601C4B1B6813F0007FFAD0184B5B68C9
:1004640013F4804FFAD0174B9A6822F0F0029A6086
:100474009A6822F4E05242F480529A609A6822F414
:1004840060429A609A6822F0030242F002029A6083
:100494000C4B9B6803F00C03082BF9D10B4C204642
:1004A40000F0AEFA204600F0D1FA064AD2F88C30B9
:1004B40023F08073C2F88C3010BD00BF003C0240B2
:1004C40000700040003802400080BFFF00BD0105FD
:1004D40000B585B04F4B5A6C42F480425A645A6C52
:1004E40002F480420292029A1A6C42F080521A6418
:1004F4001B6C03F080530193019B4749CA6822F4A3
:10050400E0621204120C454B1343CB60FFF768FF03
:10051400FFF79AFEFFF70AFF414B1B6813F0010F28
:1005240016D13F4A136843F00103136010E03C4BBB
:100534005B6913F4806F33D0394B1A6842F400724C
:100544001A605A6922F480625A61322000F068FA13
:10055400334B9B6913F0020FFAD1314A136843F409
:10056400807313602E4B5B6913F0010FFAD0902354
:100574008DF803309DF8033029490A6922F0FF02FF
:1005840013430B6100238DF80330254B5B6913F093
:10059400020FCCD1224B5B6913F4806FF5D0C6E710
:1005A4001F4B5A690392039A9A690392039A9DF81E
:1005B4000320196921F0FF010A431A61184B5B6992
:1005C40013F0040FFAD0164A136923F0FF0343F023
:1005D40069031361124B5B6913F0040FFAD0002313
:1005E4008DF803309DF803300D490A6922F0FF02AB
:1005F40013430B610A4B5B6913F0040FFAD0084AEA
:10060400136843F400731360054B9B6913F0020FE6
:10061400FAD19AE70038024000ED00E00003FA0541
:1006240000540040FEE7FEE7FEE7FEE7FEE7704702
:1006340070477047704710B4046891FAA1F3A3B1EE
:10064400B3FA83F35B004FF0030C0CFA03F324EAD0
:10065400030391FAA1F151B1B1FA81F149008A4041
:10066400134303605DF8044B70472023EAE720211D
:10067400F4E710B4846891FAA1F3A3B1B3FA83F355
:100684005B004FF0030C0CFA03F324EA030391FA22
:10069400A1F151B1B1FA81F149008A401343836059
:1006A4005DF8044B70472023EAE72021F4E710B4F7
:1006B400C46891FAA1F3A3B1B3FA83F35B004FF0DA
:1006C400030C0CFA03F324EA030391FAA1F151B1E8
:1006D400B1FA81F149008A401343C3605DF8044BC9
:1006E40070472023EAE72021F4E710B4046A91FA62
:1006F400A1F3A3B1B3FA83F39B004FF00F0C0CFAF0
:1007040003F324EA030391FAA1F151B1B1FA81F19F
:1007140089008A40134303625DF8044B7047202329
:10072400EAE72021F4E710B4446A090A91FAA1F334
:10073400A3B1B3FA83F39B004FF00F0C0CFA03F34D
:1007440024EA030491FAA1F151B1B1FA81F18900CB
:100754008A40144344625DF8044B70472023EAE75F
:100764002021F4E7F8B507460E460D6895FAA5F57D
:1007740015B1B5FA85F51AE0202518E0B2682146CE
:100784003846FFF776FFF2687B6823EA040304FB2C
:1007940002F213437B6016E0726921463846FFF784
:1007A400C2FF726821463846FFF745FF01353468B9
:1007B40034FA05F21DD00122AA401440F6D0736821
:1007C400013B012BDAD9326921463846FFF76FFF26
:1007D4007368022BE5D194FAA4F3002BDCD0B3FAAE
:1007E40083F3072BD8D8726921463846FFF77DFF7B
:1007F400D7E70020F8BD000030B52A4CA4FB014E19
:100804004FEA9E4C446824F03F0444EA9E4444600A
:10081400046A24F03F04244DAA421BD80CF1010CB5
:1008240044EA0C040462204CA24231D9F3B902EB2D
:100834004202B1FBF2F2C2F30B0119B342F40041DC
:100844000B43C26922F44F4C2CF0FF0C4CEA030317
:10085400C36130BD4FF4967505FB0CFC134DA5FB2D
:100864000C5C4FEA9C1C0CF1010CD9E702EB8202F0
:1008740002EB8202B1FBF2F2C2F30B0129B142F4A2
:100884000041DDE748F20101DAE748F20101D7E768
:100894005200B1FBF2F340F6FC721342D1D10423AF
:1008A400CFE700BF83DE1B43A0860100D34D621057
:1008B40030B585B004460D46036823F00103036098
:1008C400684600F08DF8EA682969636A23F01F031B
:1008D4000A4313436362AB686A6802992046FFF7D0
:1008E4008BFF6A69E969A36823F4034323F0FF03D8
:1008F4000A431343A3602B68226822F01A021343AD
:100904002360236843F001032360AB69226822F467
:10091400806213432360002005B030BD034B9B6805
:10092400C3F30313024AD35CD84070470038024033
:10093400140C0008034B9B68C3F38223024AD35C64
:10094400D8407047003802400C0C0008034B9B68E9
:10095400C3F34233024AD35CD840704700380240A4
:100964000C0C00080F4B5B6803F4800323B90E4B97
:10097400082803D0002070470C4BF9E7094A516856
:1009840001F03F01B3FBF1F05368C3F3881303FB99
:1009940000F05368C3F3014301335B00B0FBF3F091
:1009A400704700BF003802400024F40000127A00AF
:1009B40008B5084B9B6803F00C03042B05D0082BE7
:1009C40005D10820FFF7CEFF08BD0348FCE7034824
:1009D400FAE700BF0038024000127A000024F40055
:1009E40010B50446FFF7E4FF2060FFF797FF60604F
:1009F400FFF7A0FFA0606068FFF7A8FFE06010BDEC
:100A0400064BA3FB00239B09013B4FF0E0225361FB
:100A14000023936105231361704700BFD34D621017
:100A240082B04FF0E0231B690193019BB0F1FF3FBB
:100A340000D0013038B14FF0E0231B6913F4803F3C
:100A4400F8D00138F6E702B070470000014B186097
:100A5400704700BF0000002010B40346007900284E
:100A640052D01A68002A5DD05879012820D0022873
:100A740029D0002831D12D494C6824EA02024A6069
:100A84001A680C6822430A609A79002A47D0022A1D
:100A940025D0032A2ED0012A46D11C68234AD168C6
:100AA40021EA0401D1601B6891680B43936036E02E
:100AB4001E49086820EA02020A601A68486802436C
:100AC4004A600020E0E71949086802430A601A688E
:100AD400486802434A600020D6E70120D4E71C6836
:100AE400124A916821EA040191601B68D1680B43A2
:100AF400D36014E019680D4A9468214391601B681F
:100B0400D1680B43D3600AE0084A11681C6821EAE3
:100B1400040111601968536823EA010353605DF806
:100B2400044B70470020FAE70120F8E7003C01403D
:100B3400034AD2F8883043F47003C2F8883070470F
:100B440000ED00E0DFF834D0FFF7F2FF0C480D4968
:100B54000D4A002302E0D458C4500433C4188C4214
:100B6400F9D30A4A0A4C002301E013600432A2427A
:100B7400FBD300F019F8FFF7ABFC704700800120AD
:100B840000000020040000202C0C000804000020B9
:100B940020000020FEE702440346934200D1704740
:100BA40003F8011BF9E7000070B50D4D0D4C641BF3
:100BB400A4100026A64209D10B4D0C4C00F018F8E5
:100BC400641BA4100026A64205D170BD55F8043B51
:100BD40098470136EEE755F8043B98470136F2E7AB
:100BE400240C0008240C0008240C0008280C00081D
:100BF400F8B500BFF8BC08BC9E467047F8B500BF06
:080C0400F8BC08BC9E467047D5
:100C0C0000000000010203040000000000000000CE
:080C1C000102030406070809A8
:040C2400B90100080A
:040C2800950100082A
:040C2C000024F400AC
:0400000508000B499B
:00000001FF
