:020000040800F2
:1000000000800120E50C0008E9070008EB07000864
:10001000ED070008EF070008F107000800000000E6
:10002000000000000000000000000000F3070008CE
:10003000F507000800000000F7070008F9070008AE
:10004000350D0008350D0008350D0008350D000888
:10005000350D0008350D0008350D0008350D000878
:10006000350D0008350D0008350D0008350D000868
:10007000350D0008350D0008350D0008350D000858
:10008000350D0008350D0008350D00080000000092
:10009000000000000000000000000000350D000816
:1000A000350D0008350D0008350D0008350D000828
:1000B000350D0008350D0008350D0008350D000818
:1000C000350D0008350D0008350D0008350D000808
:1000D000350D0008350D0008350D00080000000042
:1000E000350D0008350D0008350D00080000000032
:1000F000000000000000000000000000350D0008B6
:1001000000000000350D0008350D0008350D000811
:1001100000000000000000000000000000000000DF
:10012000350D0008350D0008350D0008350D0008A7
:10013000350D000800000000000000000000000075
:10014000000000000000000000000000350D000865
:10015000350D0008350D0008350D0008350D000877
:10016000350D0008350D00080000000000000000FB
:10017000000000000000000000000000000000007F
:1001800000000000350D0008000000000000000025
:04019000350D000821
:1001940010B5054C237833B9044B13B10448AFF3BD
:1001A40000800123237010BD040000200000000023
:1001B400900D000808B5034B1BB103490348AFF386
:1001C400008008BD0000000008000020900D000819
:1001D40053B94AB9002908BF00281CBF4FF0FF31AA
:1001E4004FF0FF3000F088B9ADF1080C6DE904CE92
:1001F40000F006F8DDF804E0DDE9022304B07047FE
:100204002DE9F047089D8E4604468846002B4AD1C6
:100214008A42174662D9B2FA82F64EB1C6F1200379
:1002240001FA06F820FA03F3B74043EA0808B44099
:100234004FEA174E1FFA87FCB8FBFEF1230C0EFBA6
:10024400118843EA084301FB0CF29A4209D9FB18CE
:1002540001F1FF3080F0EA809A4240F2E7800239EF
:100264003B449A1AA3B2B2FBFEF00EFB102243EAFF
:10027400024300FB0CFC9C4509D9FB1800F1FF323A
:1002840080F0D6809C4540F2D3803B44023840EA5B
:100294000140A3EB0C0300211DB1F3400022C5E98A
:1002A4000032BDE8F0878B4205D90DB1C5E90001E4
:1002B40000210846F5E7B3FA83F1002946D17345D6
:1002C40002D3824200F20581841A6EEB03020120FC
:1002D4009046002DE5D0C5E90048E2E7002A00F089
:1002E4009080B2FA82F6002E40F0A4808A1A030CA1
:1002F4004FEA174E80B2BCB20121B2FBFEFC0EFBEA
:100304001C2243EA024304FB0CF29A4207D9FB186D
:100314000CF1FF3802D29A4200F2E080C4469B1AE4
:10032400B3FBFEF20EFB123340EA034302FB04F478
:100334009C4207D9FB1802F1FF3002D29C4200F222
:10034400CA8002461B1B42EA0C40A5E7C1F1200605
:100354008B4022FA06F71F430EFA01F420FA06F343
:100364002EFA06FE4FEA1749234300FA01F81FFA52
:1003740087FCBEFBF9F01C0C09FB10EE44EA0E44AA
:1003840000FB0CFEA64502FA01F209D93C1900F162
:10039400FF3A80F09C80A64540F2998002383C44A4
:1003A400A4EB0E041FFA83FEB4FBF9F309FB134418
:1003B4004EEA044403FB0CFCA44508D93C1903F1A0
:1003C400FF3E80F08280A4457FD9023B3C4443EA4F
:1003D4000040A4EB0C04A0FB02EC64457346E14628
:1003E40062D35FD05DB1B8EB030264EB090404FA95
:1003F40006F622FA01F31E43CC40C5E9006400214D
:100404004FE7B1FBF2FC010C41EA0E4180B240EA35
:1004140001423B4638463C46B846BE462026B1FB20
:10042400F7F1A2EB080241EA0C4166E7014618E73E
:1004340010462CE7C6F120022EFA02F3B740B14071
:1004440020FA02F24FEA174E0A43B3FBFEF8BCB29D
:100454000EFB1833110C41EA034108FB04F9B040C8
:1004640089454FEA104380B23ED9791808F1FF3C20
:1004740001D289451FD8A1EB0901B1FBFEF909FBA3
:1004840004F80EFB191192B242EA0142424529D204
:10049400BA1809F1FF31C4D24245C2D2A9F102010E
:1004A4003A44BEE7F0459DD2BEEB02036CEB070C69
:1004B4000138E14696E7A7EB09094944A8F1020C83
:1004C400B1FBFEF909FB04F8DBE773467FE750460E
:1004D40066E70846FDE63B44023A33E7ACF1020C1A
:1004E4003B441CE749469CE7A1EB0901C446B1FB28
:1004F400FEF909FB04F8C4E7704700BF00B500F03B
:100504000700C0F1070CBCF1040F28BF4FF0040C26
:10051400031D062B0FD9C31E4FF0FF3E0EFA0CF03D
:1005240021EA000199400EFA03FE22EA0E0241EA92
:1005340002005DF804FB0023EEE7000082B0064BE6
:100544001A6B42F001021A631B6B03F0010301935F
:10055400019B02B0704700BF0038024010B592B052
:100564002822002108A800F0E4FB0024029403944C
:1005740004940594069407941C4B5A6C42F48052DC
:100584005A645A6C02F480520192019A1A6B42F036
:1005940001021A631B6B03F001030093009BE02329
:1005A400029302230393032304930523079302A9CD
:1005B4000F4800F0B7F908944FF4827309930A9432
:1005C4000B940C944FF400730D930E940F941094A9
:1005D4000A231193074C08A9204600F0ECF963683C
:1005E40023F01003636012B010BD00BF0038024056
:1005F400000002400030014030B591B0002409945D
:100604000A940B940C940D940E940F9403940494F4
:1006140005940694079408941D4B1A6C42F4003216
:100624001A641A6C02F400320292029A1A6B42F0B3
:1006340001021A631B6B03F001030193019B0C2558
:1006440003950223049303230593072308930DEBD7
:100654000501104800F066F94FF4E13309930A9458
:100664000B940C940D950E940F940B4C09A92046F1
:1006740000F0E0FA236923F490432361636923F0D3
:100684002A036361E36843F40053E36011B030BDAF
:1006940000380240000002400044004010B5234AE4
:1006A400136823F007031360204B1B6813F0070F34
:1006B400FAD11F4A136823F4404343F40043136000
:1006C40002F5E432136823F0F80343F08003136067
:1006D400136843F001031360164B1B6813F0020FF9
:1006E400FAD0144B9A6822F0F0029A609A6822F4C5
:1006F400E0529A609A6822F460429A609A6822F002
:1007040003029A600B4B9B6813F00C0FFAD10A4C4E
:10071400204600F0FDF9204600F020FA054AD2F800
:100724008C3023F08073C2F88C3010BD003C024042
:1007340000700040003802400024F40010B582B07C
:10074400244B5A6C42F480425A645A6C02F480423C
:100754000192019A1A6C42F080521A641B6C03F0E5
:1007640080530093009B1C4CE26822F4E062120464
:10077400120C1A4B1343E360E06800220F21C0F30C
:100784000220FFF7BBFE0301DBB284F82330FFF73E
:1007940085FFFFF7D3FEFFF7E1FEFFF72DFF104AB9
:1007A400136843F0400313600BE033B10C4B9B68B8
:1007B40013F08003F9D00123F7E74FF4FA6000F057
:1007C400B7F9074B9B6813F0020FFAD0044B67226A
:1007D4001A73EBE70038024000ED00E00003FA056D
:1007E40000300140FEE7FEE7FEE7FEE7FEE7704764
:1007F40070477047704710B4046891FAA1F3A3B12D
:10080400B3FA83F35B004FF0030C0CFA03F324EA0E
:10081400030391FAA1F151B1B1FA81F149008A407F
:10082400134303605DF8044B70472023EAE720215B
:10083400F4E710B4846891FAA1F3A3B1B3FA83F393
:100844005B004FF0030C0CFA03F324EA030391FA60
:10085400A1F151B1B1FA81F149008A401343836097
:100864005DF8044B70472023EAE72021F4E710B435
:10087400C46891FAA1F3A3B1B3FA83F35B004FF018
:10088400030C0CFA03F324EA030391FAA1F151B126
:10089400B1FA81F149008A401343C3605DF8044B07
:1008A40070472023EAE72021F4E710B4046A91FAA0
:1008B400A1F3A3B1B3FA83F39B004FF00F0C0CFA2E
:1008C40003F324EA030391FAA1F151B1B1FA81F1DE
:1008D40089008A40134303625DF8044B7047202368
:1008E400EAE72021F4E710B4446A090A91FAA1F373
:1008F400A3B1B3FA83F39B004FF00F0C0CFA03F38C
:1009040024EA030491FAA1F151B1B1FA81F1890009
:100914008A40144344625DF8044B70472023EAE79D
:100924002021F4E7F8B507460E460D6895FAA5F5BB
:1009340015B1B5FA85F51AE0202518E0B26821460C
:100944003846FFF776FFF2687B6823EA040304FB6A
:1009540002F213437B6016E0726921463846FFF7C2
:10096400C2FF726821463846FFF745FF01353468F7
:1009740034FA05F21DD00122AA401440F6D073685F
:10098400013B012BDAD9326921463846FFF76FFF64
:100994007368022BE5D194FAA4F3002BDCD0B3FAEC
:1009A40083F3072BD8D8726921463846FFF77DFFB9
:1009B400D7E70020F8BD0246036813F0400F2ED19C
:1009C40010B4006820F47F4020F0BF000B684C682E
:1009D40023438C682343CC6823430C6923434C6929
:1009E40023438C692343CC6923430C6A2343184370
:1009F4001060536823F00403C88A034353600B6AEE
:100A0400B3F5005F07D00020D36923F40063D361FA
:100A14005DF8044B70478B8C13610020F4E70120D0
:100A2400D36923F40063D36170470000034B9B68D0
:100A3400C3F30313024AD35CD84070470038024022
:100A4400B00D0008034B9B68C3F38223024AD35CB6
:100A5400D840704700380240A80D0008034B9B683B
:100A6400C3F34233024AD35CD84070470038024093
:100A7400A80D00080F4B5B6803F4800323B90E4BE9
:100A8400082803D0002070470C4BF9E7094A516845
:100A940001F03F01B3FBF1F05368C3F3881303FB88
:100AA40000F05368C3F3014301335B00B0FBF3F080
:100AB400704700BF003802400024F40040787D01F4
:100AC40008B5084B9B6803F00C03042B05D0082BD6
:100AD40005D10820FFF7CEFF08BD0348FCE7034813
:100AE400FAE700BF0038024040787D010024F4009A
:100AF40010B50446FFF7E4FF2060FFF797FF60603E
:100B0400FFF7A0FFA0606068FFF7A8FFE06010BDDA
:100B1400064BA3FB00239B09013B4FF0E0225361EA
:100B24000023936105231361704700BFD34D621006
:100B340082B04FF0E0231B690193019BB0F1FF3FAA
:100B440000D0013038B14FF0E0231B6913F4803F2B
:100B5400F8D00138F6E702B070470000014B186086
:100B6400704700BF0000002010B50446B2F5004FE6
:100B74002FD04FF0000C48184CEB0C0C40184CF1E3
:100B8400000C4FEACC0C4CEA507CC00040184FEAF1
:100B940083024FEA93734CF10001FFF719FB2449D8
:100BA400A1FB00235B091A0192B24FF0640C0CFB09
:100BB40013031B013233A1FB0313C3F34F1303F0DD
:100BC400F0010A4492B203F00F0313449BB2A360F2
:100BD40010BD4FF0000C48184CEB0C02401842F1C9
:100BE4000002D20042EA5072C000401842F10001F3
:100BF400DA184CEB0C03FFF7EBFA0D49A1FB0023C9
:100C04005B091A0192B24FF0640C0CFB1303DB0076
:100C14003233A1FB0313C3F34F13590001F4F871EA
:100C24000A4492B203F0070313449BB2A360CFE7D4
:100C34001F85EB51C36813F4005F01D00120704796
:100C440030B585B004460D46C36823F4164323F03B
:100C54000C034A68C9680A4329690A43A9690A4313
:100C64001343C360AB68026922F440521343036127
:100C74006B69426922F44072134343616846FFF78B
:100C840037FF0F4B9C4208D00E4B9C420BD00E4BAF
:100C94009C420AD0012005B030BD039969B12B688C
:100CA4002BB90120F7E70299F8E70399F6E7AA6957
:100CB4002046FFF759FF0020EDE70120EBE700BFD6
:100CC400001001400044004000140140034AD2F8DF
:100CD400883043F47003C2F88830704700ED00E0B8
:100CE400DFF834D0FFF7F2FF0C480D490D4A00231A
:100CF40002E0D458C4500433C4188C42F9D30A4ACD
:100D04000A4C002301E013600432A242FBD300F03A
:100D140019F8FFF713FD7047008001200000002040
:100D240004000020D00D0008040000202000002052
:100D3400FEE702440346934200D1704703F8011BC7
:100D4400F9E7000070B50D4D0D4C641BA41000268E
:100D5400A64209D10B4D0C4C00F018F8641BA410EA
:100D64000026A64205D170BD55F8043B98470136CC
:100D7400EEE755F8043B98470136F2E7C80D000842
:100D8400C80D0008C80D0008CC0D0008F8B500BF58
:100D9400F8BC08BC9E467047F8B500BFF8BC08BC58
:040DA4009E467047B0
:100DA8000000000001020304000000000000000031
:080DB80001020304060708090B
:080DC00044F4FF7F0100000074
:040DC800B901000865
:040DCC009501000885
:040DD0000024F40007
:0400000508000CE5FE
:00000001FF
